:10000000B4EF02F00000000000EF00F0000000007C
:0A0010000000000000000000F3D71C
:0C001C00290E0D6E0D2EFED70000120004
:10002800120E0C6EDA0E0D6E0D2EFED70C2EFCD7AE
:0400380000001200B2
:06003C00000000001200AC
:1000420062BE02D0839601D0838662BC02D08394C2
:1000520001D0838462BA02D0839201D0838262B8D3
:1000620002D0839001D0838053B002D0838801D024
:100072008398838AE2DF839A62B602D0839601D0A4
:10008200838662B402D0839401D0838462B202D0A8
:10009200839201D0838262B002D0839001D08380A8
:1000A20053B002D0838801D08398838AC6DF839AB3
:0C00B20053A002D0B8DF01D0B0DF120074
:0C00BE00539061C062F0BEDF538012005E
:0A00CA00120E0D6E0D2EFED712006F
:1000D400220E0C6E086A096A0A6A0B6A0C06D8B406
:1000E4001FD0D8900B320A3209320832033202325E
:1000F40001320032D8A0F2D70C06D8B409D004508B
:1001040008260550092206500A2207500B22EAD776
:10011400045008260550092206500A2207500B22D3
:020124001200C7
:100126000900F5CFE6FF0006FBE10106F9E1120042
:10013600959A95989590959295949596839A839885
:1001460083968394839283906CDF6BDF6ADF83826E
:100156008380838A70DF839A64DF838A6CDF839A65
:1001660060DF838A68DF839A5CDF8390838A63DF3C
:10017600839A57DF838A5FDF839A83928386838A93
:100186005ADF839A4EDF83968380838A54DF839A6D
:100196008390838A50DF839A44DF838A4CDF839A75
:1001A6008380838A48DF839A3CDF8390838A43DF98
:1001B600839A8386838483828380838A3CDF839ABF
:0601C60030DF538012003F
:1001CC000FD0800E5C6E19D0C00E5C6E16D0940EE3
:1001DC005C6E13D0D40E5C6E10D0800E5C6E0DD0A5
:1001EC005C50010AEEE05C50020AEEE05C50030A3F
:1001FC00EEE05C50040AEEE0F0D75D04006E5C505B
:10020C00002600C05CF000C062F015DF5390606AFD
:10021C0060505E24E96E000E5F20EA6EEE520BE039
:10022C0060505E24E96E000E5F20EA6EEECF61F046
:0A023C0040DF602AEDD75380120066
:100246000B6A0A6A096A086A0E6A03340836045099
:10025600085E0550D8A0053C095E0650D8A0063CAD
:100266000A5E0750D8A0073C0B5EE86AD8A0010ECC
:100276000E5E0336070E0C6E0334083609360A3650
:100286000B360E36045003A012D0085E0550D8A0D7
:10029600053C095E0650D8A0063C0A5E0750D8A069
:1002A600073C0B5EE86AD8A0010E0E5E11D0082648
:1002B6000550D8B0053C09260650D8B0063C0A269B
:1002C6000750D8B0073C0B26E86AD8B0010E0E26B8
:1002D60003360C2ED1D70234083609360A360B36C9
:1002E6000E36045003A012D0085E0550D8A0053C77
:1002F600095E0650D8A0063C0A5E0750D8A0073C07
:100306000B5EE86AD8A0010E0E5E11D008260550D5
:10031600D8B0053C09260650D8B0063C0A26075038
:10032600D8B0073C0B26E86AD8B0010E0E26023676
:10033600070E0C6E0234083609360A360B360E36B0
:10034600045002A012D0085E0550D8A0053C095EF4
:100356000650D8A0063C0A5E0750D8A0073C0B5EA4
:10036600E86AD8A0010E0E5E11D008260550D8B056
:10037600053C09260650D8B0063C0A260750D8B0D8
:10038600073C0B26E86AD8B0010E0E2602360C2E64
:10039600D1D70134083609360A360B360E360450E4
:1003A60002A012D0085E0550D8A0053C095E065092
:1003B600D8A0063C0A5E0750D8A0073C0B5EE86A48
:1003C600D8A0010E0E5E11D008260550D8B0053C07
:1003D60009260650D8B0063C0A260750D8B0073C76
:1003E6000B26E86AD8B0010E0E260136070E0C6EF3
:1003F6000134083609360A360B360E36045001A08B
:1004060012D0085E0550D8A0053C095E0650D8A05B
:10041600063C0A5E0750D8A0073C0B5EE86AD8A0E7
:10042600010E0E5E11D008260550D8B0053C0926EF
:100436000650D8B0063C0A260750D8B0073C0B2613
:10044600E86AD8B0010E0E2601360C2ED1D700343C
:10045600083609360A360B360E36045001A012D07D
:10046600085E0550D8A0053C095E0650D8A0063C9B
:100476000A5E0750D8A0073C0B5EE86AD8A0010EBA
:100486000E5E11D008260550D8B0053C0926065048
:10049600D8B0063C0A260750D8B0073C0B26E86AB7
:1004A600D8B0010E0E260036070E0C6E0034083644
:1004B60009360A360B360E36045000A012D0085EF6
:1004C6000550D8A0053C095E0650D8A0063C0A5E39
:1004D6000750D8A0073C0B5EE86AD8A0010E0E5E56
:1004E60011D008260550D8B0053C09260650D8B0CC
:1004F600063C0A260750D8B0073C0B26E86AD8B057
:10050600010E0E2600360C2ED1D700B00ED00450A8
:1005160008260550D8B0053C09260650D8B0063C3A
:0C0526000A260750D8B0073C0B26120034
:10053200C26A070EC012C08E5CC000F00036009086
:10054200003600900050C212C280BEDDC282C2A23A
:1005520001D0FDD7C4CF01F0006AC3500012000ED3
:060562000112C29012001C
:10056800CFEC03F0FF0E926E010EC26E0E0EC16E3E
:10057800DEDD010E626E61DD0C0E626E5EDD010E67
:100588005C6E030E5D6E290E5E6E000E5F6E1ADEE7
:10059800020E5C6E050E5D6E360E5E6E000E5F6EB0
:1005A80011DE1A0E0B6E5E0E0C6E6E0E0D6E0D2E9B
:1005B800FED70C2EFCD70B2EFAD70000010E626E68
:1005C8003CDD010E5C6E080E5D6E150E5E6E000E53
:1005D8005F6EF8DD020E5C6E010E5D6E180E5E6ECB
:1005E800000E5F6EEFDD1A0E0B6E5E0E0C6E6E0E59
:1005F8000D6E0D2EFED70C2EFCD70B2EFAD7000051
:100608005C6A93DF00C054F001C055F0000E566ECE
:10061800576E54C000F055C001F056C002F057C0E4
:1006280003F0880E046E130E056E000E066E076E3C
:100638004DDDFF0E046E030E056E000E066E076E8E
:10064800FEDD00C054F001C055F002C056F003C0F2
:1006580057F0E80E046E030E056E000E066E076E68
:10066800EEDD300E00244C6EE80E046E030E056EAF
:10067800000E066E076E54C000F055C001F056C05B
:1006880002F057C003F0DBDD08C000F009C001F03C
:100698000AC002F00BC003F000C058F001C059F0C6
:1006A80002C05AF003C05BF0640E046E000E056EC3
:1006B800066E076E58C000F059C001F05AC002F02B
:1006C8005BC003F0BCDD300E00244E6E640E046E79
:1006D800000E056E066E076E58C000F059C001F096
:1006E8005AC002F05BC003F0AADD08C000F009C0E0
:1006F80001F00AC002F00BC003F00A0E046E000EEF
:10070800056E066E076E9BDD300E00244F6E010EDF
:10071800626E93DC010E5C6E030E5D6E3F0E5E6EC4
:10072800000E5F6E4FDD020E5C6E050E5D6E4C0EA8
:100738005E6E000E5F6E46DD070E0B6E580E0C6E79
:10074800590E0D6E0D2EFED70C2EFCD70B2EFAD798
:080758000000000055D7FFD797
:10079E0010EE15F03E0E006E010E016E600EF66E3E
:0E07AE00070EF76E000EF86E93EC00F01200CE
:03076000425900FB
:1007630033313139202033313232202033313233A7
:010773000085
:0D07740050524F4A454354204E414D450020
:090781002D2D4C5644542D2D0081
:0D078A00444953504C4143454D454E5400E9
:07079700302E30306D6D00C3
:020000040030CA
:0D000100021F1EFF8381FF0FC00FE00F40A4
:00000001FF
